{
  "_format": "hh-sol-artifact-1",
  "contractName": "NFTMarketplace",
  "sourceName": "contracts/NFTMarketplace.sol",
  "abi": [
    {
      "anonymous": false,
      "inputs": [
        {
          "indexed": false,
          "internalType": "uint256",
          "name": "itemId",
          "type": "uint256"
        },
        {
          "indexed": true,
          "internalType": "address",
          "name": "nft",
          "type": "address"
        },
        {
          "indexed": false,
          "internalType": "uint256",
          "name": "tokenId",
          "type": "uint256"
        },
        {
          "indexed": false,
          "internalType": "uint256",
          "name": "price",
          "type": "uint256"
        },
        {
          "indexed": true,
          "internalType": "address",
          "name": "seller",
          "type": "address"
        },
        {
          "indexed": true,
          "internalType": "address",
          "name": "buyer",
          "type": "address"
        }
      ],
      "name": "Bought",
      "type": "event"
    },
    {
      "anonymous": false,
      "inputs": [
        {
          "indexed": false,
          "internalType": "uint256",
          "name": "itemId",
          "type": "uint256"
        },
        {
          "indexed": true,
          "internalType": "address",
          "name": "nft",
          "type": "address"
        },
        {
          "indexed": false,
          "internalType": "uint256",
          "name": "tokenId",
          "type": "uint256"
        },
        {
          "indexed": false,
          "internalType": "uint256",
          "name": "price",
          "type": "uint256"
        },
        {
          "indexed": true,
          "internalType": "address",
          "name": "seller",
          "type": "address"
        }
      ],
      "name": "Offered",
      "type": "event"
    },
    {
      "inputs": [
        {
          "internalType": "uint256",
          "name": "_itemId",
          "type": "uint256"
        }
      ],
      "name": "getItem",
      "outputs": [
        {
          "components": [
            {
              "internalType": "uint256",
              "name": "itemId",
              "type": "uint256"
            },
            {
              "internalType": "contract IERC721",
              "name": "nft",
              "type": "address"
            },
            {
              "internalType": "uint256",
              "name": "tokenId",
              "type": "uint256"
            },
            {
              "internalType": "uint256",
              "name": "price",
              "type": "uint256"
            },
            {
              "internalType": "address payable",
              "name": "seller",
              "type": "address"
            },
            {
              "internalType": "bool",
              "name": "sold",
              "type": "bool"
            }
          ],
          "internalType": "struct NFTMarketplace.Item",
          "name": "",
          "type": "tuple"
        }
      ],
      "stateMutability": "view",
      "type": "function"
    },
    {
      "inputs": [],
      "name": "getItemCount",
      "outputs": [
        {
          "internalType": "uint256",
          "name": "",
          "type": "uint256"
        }
      ],
      "stateMutability": "view",
      "type": "function"
    },
    {
      "inputs": [],
      "name": "itemCount",
      "outputs": [
        {
          "internalType": "uint256",
          "name": "",
          "type": "uint256"
        }
      ],
      "stateMutability": "view",
      "type": "function"
    },
    {
      "inputs": [
        {
          "internalType": "uint256",
          "name": "",
          "type": "uint256"
        }
      ],
      "name": "items",
      "outputs": [
        {
          "internalType": "uint256",
          "name": "itemId",
          "type": "uint256"
        },
        {
          "internalType": "contract IERC721",
          "name": "nft",
          "type": "address"
        },
        {
          "internalType": "uint256",
          "name": "tokenId",
          "type": "uint256"
        },
        {
          "internalType": "uint256",
          "name": "price",
          "type": "uint256"
        },
        {
          "internalType": "address payable",
          "name": "seller",
          "type": "address"
        },
        {
          "internalType": "bool",
          "name": "sold",
          "type": "bool"
        }
      ],
      "stateMutability": "view",
      "type": "function"
    },
    {
      "inputs": [
        {
          "internalType": "contract IERC721",
          "name": "_nft",
          "type": "address"
        },
        {
          "internalType": "uint256",
          "name": "_tokenId",
          "type": "uint256"
        },
        {
          "internalType": "uint256",
          "name": "_price",
          "type": "uint256"
        }
      ],
      "name": "makeItem",
      "outputs": [],
      "stateMutability": "nonpayable",
      "type": "function"
    },
    {
      "inputs": [
        {
          "internalType": "uint256",
          "name": "_itemId",
          "type": "uint256"
        }
      ],
      "name": "purchaseItem",
      "outputs": [],
      "stateMutability": "payable",
      "type": "function"
    }
  ],
  "bytecode": "0x6080604052600060015534801561001557600080fd5b50600160008190555061100b8061002d6000396000f3fe6080604052600436106100555760003560e01c80633129e7731461005a5780636bfb0d01146100975780637749cf23146100c2578063bfb231d2146100ed578063d38ea5bf1461012f578063fa00afc71461014b575b600080fd5b34801561006657600080fd5b50610081600480360381019061007c9190610a1c565b610174565b60405161008e9190610ccd565b60405180910390f35b3480156100a357600080fd5b506100ac610286565b6040516100b99190610ce8565b60405180910390f35b3480156100ce57600080fd5b506100d761028c565b6040516100e49190610ce8565b60405180910390f35b3480156100f957600080fd5b50610114600480360381019061010f9190610a1c565b610296565b60405161012696959493929190610d03565b60405180910390f35b61014960048036038101906101449190610a1c565b61031f565b005b34801561015757600080fd5b50610172600480360381019061016d91906109cd565b61066d565b005b61017c61093f565b600260008381526020019081526020016000206040518060c0016040529081600082015481526020016001820160009054906101000a900473ffffffffffffffffffffffffffffffffffffffff1673ffffffffffffffffffffffffffffffffffffffff1673ffffffffffffffffffffffffffffffffffffffff16815260200160028201548152602001600382015481526020016004820160009054906101000a900473ffffffffffffffffffffffffffffffffffffffff1673ffffffffffffffffffffffffffffffffffffffff1673ffffffffffffffffffffffffffffffffffffffff1681526020016004820160149054906101000a900460ff1615151515815250509050919050565b60015481565b6000600154905090565b60026020528060005260406000206000915090508060000154908060010160009054906101000a900473ffffffffffffffffffffffffffffffffffffffff16908060020154908060030154908060040160009054906101000a900473ffffffffffffffffffffffffffffffffffffffff16908060040160149054906101000a900460ff16905086565b60026000541415610365576040517f08c379a000000000000000000000000000000000000000000000000000000000815260040161035c90610cad565b60405180910390fd5b6002600081905550600060026000838152602001908152602001600020905060008211801561039657506001548211155b6103d5576040517f08c379a00000000000000000000000000000000000000000000000000000000081526004016103cc90610c8d565b60405180910390fd5b806003015434101561041c576040517f08c379a000000000000000000000000000000000000000000000000000000000815260040161041390610c6d565b60405180910390fd5b8060040160149054906101000a900460ff161561046e576040517f08c379a000000000000000000000000000000000000000000000000000000000815260040161046590610c2d565b60405180910390fd5b8060040160009054906101000a900473ffffffffffffffffffffffffffffffffffffffff1673ffffffffffffffffffffffffffffffffffffffff166108fc82600301549081150290604051600060405180830381858888f193505050501580156104dc573d6000803e3d6000fd5b5060018160040160146101000a81548160ff0219169083151502179055508060010160009054906101000a900473ffffffffffffffffffffffffffffffffffffffff1673ffffffffffffffffffffffffffffffffffffffff166323b872dd303384600201546040518463ffffffff1660e01b815260040161055f93929190610bf6565b600060405180830381600087803b15801561057957600080fd5b505af115801561058d573d6000803e3d6000fd5b505050503373ffffffffffffffffffffffffffffffffffffffff168160040160009054906101000a900473ffffffffffffffffffffffffffffffffffffffff1673ffffffffffffffffffffffffffffffffffffffff168260010160009054906101000a900473ffffffffffffffffffffffffffffffffffffffff1673ffffffffffffffffffffffffffffffffffffffff167f8b4c9c8a607d67b321582dd8461041b1dc2ceeca70c8b7f37f8e02095cf2e76d858560020154866003015460405161065993929190610d64565b60405180910390a450600160008190555050565b600260005414156106b3576040517f08c379a00000000000000000000000000000000000000000000000000000000081526004016106aa90610cad565b60405180910390fd5b6002600081905550600081116106fe576040517f08c379a00000000000000000000000000000000000000000000000000000000081526004016106f590610c4d565b60405180910390fd5b6001600081548092919061071190610e3c565b91905055508273ffffffffffffffffffffffffffffffffffffffff166323b872dd3330856040518463ffffffff1660e01b815260040161075393929190610bf6565b600060405180830381600087803b15801561076d57600080fd5b505af1158015610781573d6000803e3d6000fd5b505050506040518060c0016040528060015481526020018473ffffffffffffffffffffffffffffffffffffffff1681526020018381526020018281526020013373ffffffffffffffffffffffffffffffffffffffff168152602001600015158152506002600060015481526020019081526020016000206000820151816000015560208201518160010160006101000a81548173ffffffffffffffffffffffffffffffffffffffff021916908373ffffffffffffffffffffffffffffffffffffffff160217905550604082015181600201556060820151816003015560808201518160040160006101000a81548173ffffffffffffffffffffffffffffffffffffffff021916908373ffffffffffffffffffffffffffffffffffffffff16021790555060a08201518160040160146101000a81548160ff0219169083151502179055509050503373ffffffffffffffffffffffffffffffffffffffff168373ffffffffffffffffffffffffffffffffffffffff167f655a0cf9c8db81512be9a76dc1c5ae5380b8816ce6ad659cd61b715e2999d59a600154858560405161092a93929190610d64565b60405180910390a36001600081905550505050565b6040518060c0016040528060008152602001600073ffffffffffffffffffffffffffffffffffffffff1681526020016000815260200160008152602001600073ffffffffffffffffffffffffffffffffffffffff1681526020016000151581525090565b6000813590506109b281610fa7565b92915050565b6000813590506109c781610fbe565b92915050565b6000806000606084860312156109e257600080fd5b60006109f0868287016109a3565b9350506020610a01868287016109b8565b9250506040610a12868287016109b8565b9150509250925092565b600060208284031215610a2e57600080fd5b6000610a3c848285016109b8565b91505092915050565b610a4e81610dbe565b82525050565b610a5d81610dbe565b82525050565b610a6c81610dac565b82525050565b610a7b81610dd0565b82525050565b610a8a81610dd0565b82525050565b610a9981610e18565b82525050565b610aa881610e18565b82525050565b6000610abb601183610d9b565b9150610ac682610eb4565b602082019050919050565b6000610ade601f83610d9b565b9150610ae982610edd565b602082019050919050565b6000610b01603383610d9b565b9150610b0c82610f06565b604082019050919050565b6000610b24601283610d9b565b9150610b2f82610f55565b602082019050919050565b6000610b47601f83610d9b565b9150610b5282610f7e565b602082019050919050565b60c082016000820151610b736000850182610bd8565b506020820151610b866020850182610a90565b506040820151610b996040850182610bd8565b506060820151610bac6060850182610bd8565b506080820151610bbf6080850182610a45565b5060a0820151610bd260a0850182610a72565b50505050565b610be181610e0e565b82525050565b610bf081610e0e565b82525050565b6000606082019050610c0b6000830186610a63565b610c186020830185610a63565b610c256040830184610be7565b949350505050565b60006020820190508181036000830152610c4681610aae565b9050919050565b60006020820190508181036000830152610c6681610ad1565b9050919050565b60006020820190508181036000830152610c8681610af4565b9050919050565b60006020820190508181036000830152610ca681610b17565b9050919050565b60006020820190508181036000830152610cc681610b3a565b9050919050565b600060c082019050610ce26000830184610b5d565b92915050565b6000602082019050610cfd6000830184610be7565b92915050565b600060c082019050610d186000830189610be7565b610d256020830188610a9f565b610d326040830187610be7565b610d3f6060830186610be7565b610d4c6080830185610a54565b610d5960a0830184610a81565b979650505050505050565b6000606082019050610d796000830186610be7565b610d866020830185610be7565b610d936040830184610be7565b949350505050565b600082825260208201905092915050565b6000610db782610dee565b9050919050565b6000610dc982610dee565b9050919050565b60008115159050919050565b6000610de782610dac565b9050919050565b600073ffffffffffffffffffffffffffffffffffffffff82169050919050565b6000819050919050565b6000610e2382610e2a565b9050919050565b6000610e3582610dee565b9050919050565b6000610e4782610e0e565b91507fffffffffffffffffffffffffffffffffffffffffffffffffffffffffffffffff821415610e7a57610e79610e85565b5b600182019050919050565b7f4e487b7100000000000000000000000000000000000000000000000000000000600052601160045260246000fd5b7f6974656d20616c726561647920736f6c64000000000000000000000000000000600082015250565b7f5072696365206d7573742062652067726561746572207468616e207a65726f00600082015250565b7f6e6f7420656e6f75676820657468657220746f20636f766572206974656d207060008201527f7269636520616e64206d61726b65742066656500000000000000000000000000602082015250565b7f6974656d20646f65736e27742065786973740000000000000000000000000000600082015250565b7f5265656e7472616e637947756172643a207265656e7472616e742063616c6c00600082015250565b610fb081610ddc565b8114610fbb57600080fd5b50565b610fc781610e0e565b8114610fd257600080fd5b5056fea2646970667358221220c14b477fc68b7ff3e2408b249eea8c7b7240fe73c761dc4cbd3ab4c78622688964736f6c63430008040033",
  "linkReferences": {},
  "deployedLinkReferences": {}
}