{
  "_format": "hh-sol-artifact-1",
  "contractName": "NFTMarketplace",
  "sourceName": "contracts/NFTMarketplace.sol",
  "abi": [
    {
      "inputs": [
        {
          "internalType": "uint256",
          "name": "_tokenId",
          "type": "uint256"
        }
      ],
      "name": "buySneaker",
      "outputs": [],
      "stateMutability": "payable",
      "type": "function"
    },
    {
      "inputs": [
        {
          "internalType": "uint256",
          "name": "_tokenId",
          "type": "uint256"
        }
      ],
      "name": "getSneaker",
      "outputs": [
        {
          "components": [
            {
              "internalType": "contract IERC721",
              "name": "nft",
              "type": "address"
            },
            {
              "internalType": "uint256",
              "name": "tokenId",
              "type": "uint256"
            },
            {
              "internalType": "uint256",
              "name": "price",
              "type": "uint256"
            },
            {
              "internalType": "address payable",
              "name": "seller",
              "type": "address"
            },
            {
              "internalType": "bool",
              "name": "sold",
              "type": "bool"
            },
            {
              "internalType": "bool",
              "name": "forSale",
              "type": "bool"
            }
          ],
          "internalType": "struct NFTMarketplace.Sneaker",
          "name": "",
          "type": "tuple"
        }
      ],
      "stateMutability": "view",
      "type": "function"
    },
    {
      "inputs": [],
      "name": "getSneakerCount",
      "outputs": [
        {
          "internalType": "uint256",
          "name": "",
          "type": "uint256"
        }
      ],
      "stateMutability": "view",
      "type": "function"
    },
    {
      "inputs": [
        {
          "internalType": "contract IERC721",
          "name": "_nft",
          "type": "address"
        },
        {
          "internalType": "uint256",
          "name": "_tokenId",
          "type": "uint256"
        },
        {
          "internalType": "uint256",
          "name": "_price",
          "type": "uint256"
        }
      ],
      "name": "listSneaker",
      "outputs": [],
      "stateMutability": "nonpayable",
      "type": "function"
    },
    {
      "inputs": [
        {
          "internalType": "uint256",
          "name": "_sneakerPrice",
          "type": "uint256"
        },
        {
          "internalType": "uint256",
          "name": "_tokenId",
          "type": "uint256"
        }
      ],
      "name": "modifySneakerPrice",
      "outputs": [],
      "stateMutability": "payable",
      "type": "function"
    },
    {
      "inputs": [],
      "name": "sneakerCount",
      "outputs": [
        {
          "internalType": "uint256",
          "name": "",
          "type": "uint256"
        }
      ],
      "stateMutability": "view",
      "type": "function"
    },
    {
      "inputs": [
        {
          "internalType": "uint256",
          "name": "",
          "type": "uint256"
        }
      ],
      "name": "sneakers",
      "outputs": [
        {
          "internalType": "contract IERC721",
          "name": "nft",
          "type": "address"
        },
        {
          "internalType": "uint256",
          "name": "tokenId",
          "type": "uint256"
        },
        {
          "internalType": "uint256",
          "name": "price",
          "type": "uint256"
        },
        {
          "internalType": "address payable",
          "name": "seller",
          "type": "address"
        },
        {
          "internalType": "bool",
          "name": "sold",
          "type": "bool"
        },
        {
          "internalType": "bool",
          "name": "forSale",
          "type": "bool"
        }
      ],
      "stateMutability": "view",
      "type": "function"
    },
    {
      "inputs": [
        {
          "internalType": "uint256",
          "name": "_tokenId",
          "type": "uint256"
        }
      ],
      "name": "toggleForSale",
      "outputs": [],
      "stateMutability": "nonpayable",
      "type": "function"
    }
  ],
  "bytecode": "0x6080604052600060015534801561001557600080fd5b50600160008190555061130a8061002d6000396000f3fe60806040526004361061007b5760003560e01c80637382bc6a1161004e5780637382bc6a1461011b578063a32018b914610137578063bd2e065c14610160578063dd594779146101a25761007b565b80634502032e1461008057806349c31959146100ab5780635e600e2b146100d657806362b56d5f146100ff575b600080fd5b34801561008c57600080fd5b506100956101df565b6040516100a29190610f95565b60405180910390f35b3480156100b757600080fd5b506100c06101e5565b6040516100cd9190610f95565b60405180910390f35b3480156100e257600080fd5b506100fd60048036038101906100f89190610b57565b6101ef565b005b61011960048036038101906101149190610bcf565b61046d565b005b61013560048036038101906101309190610ba6565b610530565b005b34801561014357600080fd5b5061015e60048036038101906101599190610ba6565b610806565b005b34801561016c57600080fd5b5061018760048036038101906101829190610ba6565b61090e565b60405161019996959493929190610e39565b60405180910390f35b3480156101ae57600080fd5b506101c960048036038101906101c49190610ba6565b6109a4565b6040516101d69190610f7a565b60405180910390f35b60015481565b6000600154905090565b60026000541415610235576040517f08c379a000000000000000000000000000000000000000000000000000000000815260040161022c90610f3a565b60405180910390fd5b600260008190555060008111610280576040517f08c379a000000000000000000000000000000000000000000000000000000000815260040161027790610efa565b60405180910390fd5b6001600081548092919061029390611051565b91905055508273ffffffffffffffffffffffffffffffffffffffff166323b872dd3330856040518463ffffffff1660e01b81526004016102d593929190610e02565b600060405180830381600087803b1580156102ef57600080fd5b505af1158015610303573d6000803e3d6000fd5b505050506040518060c001604052808473ffffffffffffffffffffffffffffffffffffffff1681526020018381526020018281526020013373ffffffffffffffffffffffffffffffffffffffff1681526020016000151581526020016001151581525060026000600154815260200190815260200160002060008201518160000160006101000a81548173ffffffffffffffffffffffffffffffffffffffff021916908373ffffffffffffffffffffffffffffffffffffffff160217905550602082015181600101556040820151816002015560608201518160030160006101000a81548173ffffffffffffffffffffffffffffffffffffffff021916908373ffffffffffffffffffffffffffffffffffffffff16021790555060808201518160030160146101000a81548160ff02191690831515021790555060a08201518160030160156101000a81548160ff0219169083151502179055509050506001600081905550505050565b3373ffffffffffffffffffffffffffffffffffffffff166002600083815260200190815260200160002060030160009054906101000a900473ffffffffffffffffffffffffffffffffffffffff1673ffffffffffffffffffffffffffffffffffffffff1614610511576040517f08c379a000000000000000000000000000000000000000000000000000000000815260040161050890610f5a565b60405180910390fd5b8160026000838152602001908152602001600020600201819055505050565b60026000541415610576576040517f08c379a000000000000000000000000000000000000000000000000000000000815260040161056d90610f3a565b60405180910390fd5b60026000819055506000600260008381526020019081526020016000209050600115158160030160159054906101000a900460ff161515146105ed576040517f08c379a00000000000000000000000000000000000000000000000000000000081526004016105e490610eda565b60405180910390fd5b6000821180156105ff57506001548211155b61063e576040517f08c379a000000000000000000000000000000000000000000000000000000000815260040161063590610f1a565b60405180910390fd5b8060020154341015610685576040517f08c379a000000000000000000000000000000000000000000000000000000000815260040161067c90610e9a565b60405180910390fd5b8060030160149054906101000a900460ff16156106d7576040517f08c379a00000000000000000000000000000000000000000000000000000000081526004016106ce90610eba565b60405180910390fd5b8060030160009054906101000a900473ffffffffffffffffffffffffffffffffffffffff1673ffffffffffffffffffffffffffffffffffffffff166108fc82600201549081150290604051600060405180830381858888f19350505050158015610745573d6000803e3d6000fd5b5060018160030160146101000a81548160ff0219169083151502179055508060000160009054906101000a900473ffffffffffffffffffffffffffffffffffffffff1673ffffffffffffffffffffffffffffffffffffffff166323b872dd303384600101546040518463ffffffff1660e01b81526004016107c893929190610e02565b600060405180830381600087803b1580156107e257600080fd5b505af11580156107f6573d6000803e3d6000fd5b5050505050600160008190555050565b6000600260008381526020019081526020016000209050600073ffffffffffffffffffffffffffffffffffffffff163373ffffffffffffffffffffffffffffffffffffffff16141561085757600080fd5b3373ffffffffffffffffffffffffffffffffffffffff168160030160009054906101000a900473ffffffffffffffffffffffffffffffffffffffff1673ffffffffffffffffffffffffffffffffffffffff16146108b357600080fd5b8060030160159054906101000a900460ff16156108ec5760008160030160156101000a81548160ff02191690831515021790555061090a565b60018160030160156101000a81548160ff0219169083151502179055505b5050565b60026020528060005260406000206000915090508060000160009054906101000a900473ffffffffffffffffffffffffffffffffffffffff16908060010154908060020154908060030160009054906101000a900473ffffffffffffffffffffffffffffffffffffffff16908060030160149054906101000a900460ff16908060030160159054906101000a900460ff16905086565b6109ac610ac7565b600260008381526020019081526020016000206040518060c00160405290816000820160009054906101000a900473ffffffffffffffffffffffffffffffffffffffff1673ffffffffffffffffffffffffffffffffffffffff1673ffffffffffffffffffffffffffffffffffffffff16815260200160018201548152602001600282015481526020016003820160009054906101000a900473ffffffffffffffffffffffffffffffffffffffff1673ffffffffffffffffffffffffffffffffffffffff1673ffffffffffffffffffffffffffffffffffffffff1681526020016003820160149054906101000a900460ff161515151581526020016003820160159054906101000a900460ff1615151515815250509050919050565b6040518060c00160405280600073ffffffffffffffffffffffffffffffffffffffff1681526020016000815260200160008152602001600073ffffffffffffffffffffffffffffffffffffffff1681526020016000151581526020016000151581525090565b600081359050610b3c816112a6565b92915050565b600081359050610b51816112bd565b92915050565b600080600060608486031215610b6c57600080fd5b6000610b7a86828701610b2d565b9350506020610b8b86828701610b42565b9250506040610b9c86828701610b42565b9150509250925092565b600060208284031215610bb857600080fd5b6000610bc684828501610b42565b91505092915050565b60008060408385031215610be257600080fd5b6000610bf085828601610b42565b9250506020610c0185828601610b42565b9150509250929050565b610c1481610fd3565b82525050565b610c2381610fd3565b82525050565b610c3281610fc1565b82525050565b610c4181610fe5565b82525050565b610c5081610fe5565b82525050565b610c5f8161102d565b82525050565b610c6e8161102d565b82525050565b6000610c81602283610fb0565b9150610c8c826110c9565b604082019050919050565b6000610ca4602483610fb0565b9150610caf82611118565b604082019050919050565b6000610cc7601d83610fb0565b9150610cd282611167565b602082019050919050565b6000610cea602a83610fb0565b9150610cf582611190565b604082019050919050565b6000610d0d602583610fb0565b9150610d18826111df565b604082019050919050565b6000610d30601f83610fb0565b9150610d3b8261122e565b602082019050919050565b6000610d53602983610fb0565b9150610d5e82611257565b604082019050919050565b60c082016000820151610d7f6000850182610c56565b506020820151610d926020850182610de4565b506040820151610da56040850182610de4565b506060820151610db86060850182610c0b565b506080820151610dcb6080850182610c38565b5060a0820151610dde60a0850182610c38565b50505050565b610ded81611023565b82525050565b610dfc81611023565b82525050565b6000606082019050610e176000830186610c29565b610e246020830185610c29565b610e316040830184610df3565b949350505050565b600060c082019050610e4e6000830189610c65565b610e5b6020830188610df3565b610e686040830187610df3565b610e756060830186610c1a565b610e826080830185610c47565b610e8f60a0830184610c47565b979650505050505050565b60006020820190508181036000830152610eb381610c74565b9050919050565b60006020820190508181036000830152610ed381610c97565b9050919050565b60006020820190508181036000830152610ef381610cba565b9050919050565b60006020820190508181036000830152610f1381610cdd565b9050919050565b60006020820190508181036000830152610f3381610d00565b9050919050565b60006020820190508181036000830152610f5381610d23565b9050919050565b60006020820190508181036000830152610f7381610d46565b9050919050565b600060c082019050610f8f6000830184610d69565b92915050565b6000602082019050610faa6000830184610df3565b92915050565b600082825260208201905092915050565b6000610fcc82611003565b9050919050565b6000610fde82611003565b9050919050565b60008115159050919050565b6000610ffc82610fc1565b9050919050565b600073ffffffffffffffffffffffffffffffffffffffff82169050919050565b6000819050919050565b60006110388261103f565b9050919050565b600061104a82611003565b9050919050565b600061105c82611023565b91507fffffffffffffffffffffffffffffffffffffffffffffffffffffffffffffffff82141561108f5761108e61109a565b5b600182019050919050565b7f4e487b7100000000000000000000000000000000000000000000000000000000600052601160045260246000fd5b7f4e46544d61726b6574706c6163653a206e6f7420656e6f7567682062616c616e60008201527f6365000000000000000000000000000000000000000000000000000000000000602082015250565b7f4e46544d61726b6574706c6163653a20736e65616b657220616c72656164792060008201527f736f6c6400000000000000000000000000000000000000000000000000000000602082015250565b7f746869732020736e65616b6572206973206e6f7420666f722073616c65000000600082015250565b7f4e46544d61726b6574706c6163653a2050726963652073686f756c642062652060008201527f61626f7665207a65726f00000000000000000000000000000000000000000000602082015250565b7f4e46544d61726b6574706c6163653a20736e65616b657220646f65736e27742060008201527f6578697374000000000000000000000000000000000000000000000000000000602082015250565b7f5265656e7472616e637947756172643a207265656e7472616e742063616c6c00600082015250565b7f4e46544d61726b6574706c6163653a2043616e277420706572666f726d20747260008201527f616e73616374696f6e0000000000000000000000000000000000000000000000602082015250565b6112af81610ff1565b81146112ba57600080fd5b50565b6112c681611023565b81146112d157600080fd5b5056fea26469706673582212209e49481af19cfe6bf4993678e5c70b56b71b183b0aecc7d2eb2dd28aac51ae0364736f6c63430008040033",
  "linkReferences": {},
  "deployedLinkReferences": {}
}