{
  "_format": "hh-sol-artifact-1",
  "contractName": "NFTMarketplace",
  "sourceName": "contracts/NFTMarketplace.sol",
  "abi": [
    {
      "inputs": [
        {
          "internalType": "uint256",
          "name": "_tokenId",
          "type": "uint256"
        }
      ],
      "name": "buySneaker",
      "outputs": [],
      "stateMutability": "payable",
      "type": "function"
    },
    {
      "inputs": [
        {
          "internalType": "uint256",
          "name": "_tokenId",
          "type": "uint256"
        }
      ],
      "name": "getSneaker",
      "outputs": [
        {
          "components": [
            {
              "internalType": "contract IERC721",
              "name": "nft",
              "type": "address"
            },
            {
              "internalType": "uint256",
              "name": "tokenId",
              "type": "uint256"
            },
            {
              "internalType": "uint256",
              "name": "price",
              "type": "uint256"
            },
            {
              "internalType": "address payable",
              "name": "seller",
              "type": "address"
            },
            {
              "internalType": "bool",
              "name": "sold",
              "type": "bool"
            }
          ],
          "internalType": "struct NFTMarketplace.Sneaker",
          "name": "",
          "type": "tuple"
        }
      ],
      "stateMutability": "view",
      "type": "function"
    },
    {
      "inputs": [],
      "name": "getSneakerCount",
      "outputs": [
        {
          "internalType": "uint256",
          "name": "",
          "type": "uint256"
        }
      ],
      "stateMutability": "view",
      "type": "function"
    },
    {
      "inputs": [
        {
          "internalType": "contract IERC721",
          "name": "_nft",
          "type": "address"
        },
        {
          "internalType": "uint256",
          "name": "_tokenId",
          "type": "uint256"
        },
        {
          "internalType": "uint256",
          "name": "_price",
          "type": "uint256"
        }
      ],
      "name": "listSneaker",
      "outputs": [],
      "stateMutability": "nonpayable",
      "type": "function"
    },
    {
      "inputs": [
        {
          "internalType": "uint256",
          "name": "_sneakerPrice",
          "type": "uint256"
        },
        {
          "internalType": "uint256",
          "name": "_tokenId",
          "type": "uint256"
        }
      ],
      "name": "modifySneakerPrice",
      "outputs": [],
      "stateMutability": "payable",
      "type": "function"
    },
    {
      "inputs": [],
      "name": "sneakerCount",
      "outputs": [
        {
          "internalType": "uint256",
          "name": "",
          "type": "uint256"
        }
      ],
      "stateMutability": "view",
      "type": "function"
    },
    {
      "inputs": [
        {
          "internalType": "uint256",
          "name": "",
          "type": "uint256"
        }
      ],
      "name": "sneakers",
      "outputs": [
        {
          "internalType": "contract IERC721",
          "name": "nft",
          "type": "address"
        },
        {
          "internalType": "uint256",
          "name": "tokenId",
          "type": "uint256"
        },
        {
          "internalType": "uint256",
          "name": "price",
          "type": "uint256"
        },
        {
          "internalType": "address payable",
          "name": "seller",
          "type": "address"
        },
        {
          "internalType": "bool",
          "name": "sold",
          "type": "bool"
        }
      ],
      "stateMutability": "view",
      "type": "function"
    }
  ],
  "bytecode": "0x6080604052600060015534801561001557600080fd5b5060016000819055506110888061002d6000396000f3fe6080604052600436106100705760003560e01c806362b56d5f1161004e57806362b56d5f146100f45780637382bc6a14610110578063bd2e065c1461012c578063dd5947791461016d57610070565b80634502032e1461007557806349c31959146100a05780635e600e2b146100cb575b600080fd5b34801561008157600080fd5b5061008a6101aa565b6040516100979190610d3c565b60405180910390f35b3480156100ac57600080fd5b506100b56101b0565b6040516100c29190610d3c565b60405180910390f35b3480156100d757600080fd5b506100f260048036038101906100ed9190610962565b6101ba565b005b61010e600480360381019061010991906109da565b61040f565b005b61012a600480360381019061012591906109b1565b6104d2565b005b34801561013857600080fd5b50610153600480360381019061014e91906109b1565b610750565b604051610164959493929190610c0e565b60405180910390f35b34801561017957600080fd5b50610194600480360381019061018f91906109b1565b6107d3565b6040516101a19190610d21565b60405180910390f35b60015481565b6000600154905090565b60026000541415610200576040517f08c379a00000000000000000000000000000000000000000000000000000000081526004016101f790610ce1565b60405180910390fd5b60026000819055506000811161024b576040517f08c379a000000000000000000000000000000000000000000000000000000000815260040161024290610ca1565b60405180910390fd5b6001600081548092919061025e90610df8565b91905055508273ffffffffffffffffffffffffffffffffffffffff166323b872dd3330856040518463ffffffff1660e01b81526004016102a093929190610bd7565b600060405180830381600087803b1580156102ba57600080fd5b505af11580156102ce573d6000803e3d6000fd5b505050506040518060a001604052808473ffffffffffffffffffffffffffffffffffffffff1681526020018381526020018281526020013373ffffffffffffffffffffffffffffffffffffffff1681526020016000151581525060026000600154815260200190815260200160002060008201518160000160006101000a81548173ffffffffffffffffffffffffffffffffffffffff021916908373ffffffffffffffffffffffffffffffffffffffff160217905550602082015181600101556040820151816002015560608201518160030160006101000a81548173ffffffffffffffffffffffffffffffffffffffff021916908373ffffffffffffffffffffffffffffffffffffffff16021790555060808201518160030160146101000a81548160ff0219169083151502179055509050506001600081905550505050565b3373ffffffffffffffffffffffffffffffffffffffff166002600083815260200190815260200160002060030160009054906101000a900473ffffffffffffffffffffffffffffffffffffffff1673ffffffffffffffffffffffffffffffffffffffff16146104b3576040517f08c379a00000000000000000000000000000000000000000000000000000000081526004016104aa90610d01565b60405180910390fd5b8160026000838152602001908152602001600020600201819055505050565b60026000541415610518576040517f08c379a000000000000000000000000000000000000000000000000000000000815260040161050f90610ce1565b60405180910390fd5b6002600081905550600060026000838152602001908152602001600020905060008211801561054957506001548211155b610588576040517f08c379a000000000000000000000000000000000000000000000000000000000815260040161057f90610cc1565b60405180910390fd5b80600201543410156105cf576040517f08c379a00000000000000000000000000000000000000000000000000000000081526004016105c690610c61565b60405180910390fd5b8060030160149054906101000a900460ff1615610621576040517f08c379a000000000000000000000000000000000000000000000000000000000815260040161061890610c81565b60405180910390fd5b8060030160009054906101000a900473ffffffffffffffffffffffffffffffffffffffff1673ffffffffffffffffffffffffffffffffffffffff166108fc82600201549081150290604051600060405180830381858888f1935050505015801561068f573d6000803e3d6000fd5b5060018160030160146101000a81548160ff0219169083151502179055508060000160009054906101000a900473ffffffffffffffffffffffffffffffffffffffff1673ffffffffffffffffffffffffffffffffffffffff166323b872dd303384600101546040518463ffffffff1660e01b815260040161071293929190610bd7565b600060405180830381600087803b15801561072c57600080fd5b505af1158015610740573d6000803e3d6000fd5b5050505050600160008190555050565b60026020528060005260406000206000915090508060000160009054906101000a900473ffffffffffffffffffffffffffffffffffffffff16908060010154908060020154908060030160009054906101000a900473ffffffffffffffffffffffffffffffffffffffff16908060030160149054906101000a900460ff16905085565b6107db6108db565b600260008381526020019081526020016000206040518060a00160405290816000820160009054906101000a900473ffffffffffffffffffffffffffffffffffffffff1673ffffffffffffffffffffffffffffffffffffffff1673ffffffffffffffffffffffffffffffffffffffff16815260200160018201548152602001600282015481526020016003820160009054906101000a900473ffffffffffffffffffffffffffffffffffffffff1673ffffffffffffffffffffffffffffffffffffffff1673ffffffffffffffffffffffffffffffffffffffff1681526020016003820160149054906101000a900460ff1615151515815250509050919050565b6040518060a00160405280600073ffffffffffffffffffffffffffffffffffffffff1681526020016000815260200160008152602001600073ffffffffffffffffffffffffffffffffffffffff1681526020016000151581525090565b60008135905061094781611024565b92915050565b60008135905061095c8161103b565b92915050565b60008060006060848603121561097757600080fd5b600061098586828701610938565b93505060206109968682870161094d565b92505060406109a78682870161094d565b9150509250925092565b6000602082840312156109c357600080fd5b60006109d18482850161094d565b91505092915050565b600080604083850312156109ed57600080fd5b60006109fb8582860161094d565b9250506020610a0c8582860161094d565b9150509250929050565b610a1f81610d7a565b82525050565b610a2e81610d7a565b82525050565b610a3d81610d68565b82525050565b610a4c81610d8c565b82525050565b610a5b81610d8c565b82525050565b610a6a81610dd4565b82525050565b610a7981610dd4565b82525050565b6000610a8c602283610d57565b9150610a9782610e70565b604082019050919050565b6000610aaf602483610d57565b9150610aba82610ebf565b604082019050919050565b6000610ad2602a83610d57565b9150610add82610f0e565b604082019050919050565b6000610af5602583610d57565b9150610b0082610f5d565b604082019050919050565b6000610b18601f83610d57565b9150610b2382610fac565b602082019050919050565b6000610b3b602983610d57565b9150610b4682610fd5565b604082019050919050565b60a082016000820151610b676000850182610a61565b506020820151610b7a6020850182610bb9565b506040820151610b8d6040850182610bb9565b506060820151610ba06060850182610a16565b506080820151610bb36080850182610a43565b50505050565b610bc281610dca565b82525050565b610bd181610dca565b82525050565b6000606082019050610bec6000830186610a34565b610bf96020830185610a34565b610c066040830184610bc8565b949350505050565b600060a082019050610c236000830188610a70565b610c306020830187610bc8565b610c3d6040830186610bc8565b610c4a6060830185610a25565b610c576080830184610a52565b9695505050505050565b60006020820190508181036000830152610c7a81610a7f565b9050919050565b60006020820190508181036000830152610c9a81610aa2565b9050919050565b60006020820190508181036000830152610cba81610ac5565b9050919050565b60006020820190508181036000830152610cda81610ae8565b9050919050565b60006020820190508181036000830152610cfa81610b0b565b9050919050565b60006020820190508181036000830152610d1a81610b2e565b9050919050565b600060a082019050610d366000830184610b51565b92915050565b6000602082019050610d516000830184610bc8565b92915050565b600082825260208201905092915050565b6000610d7382610daa565b9050919050565b6000610d8582610daa565b9050919050565b60008115159050919050565b6000610da382610d68565b9050919050565b600073ffffffffffffffffffffffffffffffffffffffff82169050919050565b6000819050919050565b6000610ddf82610de6565b9050919050565b6000610df182610daa565b9050919050565b6000610e0382610dca565b91507fffffffffffffffffffffffffffffffffffffffffffffffffffffffffffffffff821415610e3657610e35610e41565b5b600182019050919050565b7f4e487b7100000000000000000000000000000000000000000000000000000000600052601160045260246000fd5b7f4e46544d61726b6574706c6163653a206e6f7420656e6f7567682062616c616e60008201527f6365000000000000000000000000000000000000000000000000000000000000602082015250565b7f4e46544d61726b6574706c6163653a20736e65616b657220616c72656164792060008201527f736f6c6400000000000000000000000000000000000000000000000000000000602082015250565b7f4e46544d61726b6574706c6163653a2050726963652073686f756c642062652060008201527f61626f7665207a65726f00000000000000000000000000000000000000000000602082015250565b7f4e46544d61726b6574706c6163653a20736e65616b657220646f65736e27742060008201527f6578697374000000000000000000000000000000000000000000000000000000602082015250565b7f5265656e7472616e637947756172643a207265656e7472616e742063616c6c00600082015250565b7f4e46544d61726b6574706c6163653a2043616e277420706572666f726d20747260008201527f616e73616374696f6e0000000000000000000000000000000000000000000000602082015250565b61102d81610d98565b811461103857600080fd5b50565b61104481610dca565b811461104f57600080fd5b5056fea26469706673582212208831ad3d495c92fd937935e8a0efa34c01699988c5635091a7132bf6a289355264736f6c63430008040033",
  "linkReferences": {},
  "deployedLinkReferences": {}
}